{
  "_format": "hh-sol-artifact-1",
  "contractName": "RebelTokenCrowdsale",
  "sourceName": "contracts/crowdsale.sol",
  "abi": [
    {
      "inputs": [
        {
          "internalType": "address",
          "name": "rebelTokenAddress_",
          "type": "address"
        }
      ],
      "stateMutability": "nonpayable",
      "type": "constructor"
    },
    {
      "anonymous": false,
      "inputs": [
        {
          "indexed": true,
          "internalType": "address",
          "name": "previousOwner",
          "type": "address"
        },
        {
          "indexed": true,
          "internalType": "address",
          "name": "newOwner",
          "type": "address"
        }
      ],
      "name": "OwnershipTransferred",
      "type": "event"
    },
    {
      "inputs": [
        {
          "internalType": "address",
          "name": "",
          "type": "address"
        }
      ],
      "name": "contributions",
      "outputs": [
        {
          "internalType": "uint256",
          "name": "",
          "type": "uint256"
        }
      ],
      "stateMutability": "view",
      "type": "function"
    },
    {
      "inputs": [],
      "name": "getTotalContributions",
      "outputs": [
        {
          "internalType": "uint256",
          "name": "",
          "type": "uint256"
        }
      ],
      "stateMutability": "view",
      "type": "function"
    },
    {
      "inputs": [
        {
          "internalType": "address",
          "name": "_beneficiary",
          "type": "address"
        }
      ],
      "name": "getUserContribution",
      "outputs": [
        {
          "internalType": "uint256",
          "name": "",
          "type": "uint256"
        }
      ],
      "stateMutability": "view",
      "type": "function"
    },
    {
      "inputs": [],
      "name": "investorHardCap",
      "outputs": [
        {
          "internalType": "uint256",
          "name": "",
          "type": "uint256"
        }
      ],
      "stateMutability": "view",
      "type": "function"
    },
    {
      "inputs": [],
      "name": "investorMinCap",
      "outputs": [
        {
          "internalType": "uint256",
          "name": "",
          "type": "uint256"
        }
      ],
      "stateMutability": "view",
      "type": "function"
    },
    {
      "inputs": [],
      "name": "isOwner",
      "outputs": [
        {
          "internalType": "bool",
          "name": "",
          "type": "bool"
        }
      ],
      "stateMutability": "view",
      "type": "function"
    },
    {
      "inputs": [],
      "name": "owner",
      "outputs": [
        {
          "internalType": "address",
          "name": "",
          "type": "address"
        }
      ],
      "stateMutability": "view",
      "type": "function"
    },
    {
      "inputs": [],
      "name": "rate",
      "outputs": [
        {
          "internalType": "uint256",
          "name": "",
          "type": "uint256"
        }
      ],
      "stateMutability": "view",
      "type": "function"
    },
    {
      "inputs": [],
      "name": "renounceOwnership",
      "outputs": [],
      "stateMutability": "nonpayable",
      "type": "function"
    },
    {
      "inputs": [],
      "name": "sendTokens",
      "outputs": [],
      "stateMutability": "payable",
      "type": "function"
    },
    {
      "inputs": [],
      "name": "totalContributionsWei",
      "outputs": [
        {
          "internalType": "uint256",
          "name": "",
          "type": "uint256"
        }
      ],
      "stateMutability": "view",
      "type": "function"
    },
    {
      "inputs": [
        {
          "internalType": "address",
          "name": "newOwner",
          "type": "address"
        }
      ],
      "name": "transferOwnership",
      "outputs": [],
      "stateMutability": "nonpayable",
      "type": "function"
    },
    {
      "inputs": [],
      "name": "withdraw",
      "outputs": [],
      "stateMutability": "nonpayable",
      "type": "function"
    }
  ],
  "bytecode": "0x6080604052670de0b6b3a764000060015569d3c21bcecceda1000000600255670de0b6b3a7640000600355600060055534801561003b57600080fd5b50604051610c50380380610c50833981810160405281019061005d9190610174565b336000806101000a81548173ffffffffffffffffffffffffffffffffffffffff021916908373ffffffffffffffffffffffffffffffffffffffff16021790555060008054906101000a900473ffffffffffffffffffffffffffffffffffffffff1673ffffffffffffffffffffffffffffffffffffffff16600073ffffffffffffffffffffffffffffffffffffffff167f8be0079c531659141344cd1fd0a4f28419497f9722a3daafe3b4186f6b6457e060405160405180910390a380600660006101000a81548173ffffffffffffffffffffffffffffffffffffffff021916908373ffffffffffffffffffffffffffffffffffffffff160217905550506101e6565b60008151905061016e816101cf565b92915050565b60006020828403121561018657600080fd5b60006101948482850161015f565b91505092915050565b60006101a8826101af565b9050919050565b600073ffffffffffffffffffffffffffffffffffffffff82169050919050565b6101d88161019d565b81146101e357600080fd5b50565b610a5b806101f56000396000f3fe6080604052600436106100c25760003560e01c80638f32d59b1161007f578063ddf556d011610059578063ddf556d014610246578063e47112bd14610271578063ed5db8741461027b578063f2fde38b146102a6576100c2565b80638f32d59b146101b3578063b25d7f54146101de578063bb8b2b4714610209576100c2565b80632c4e722e146100c75780633ccfd60b146100f257806342e94c9014610109578063492c69f114610146578063715018a6146101715780638da5cb5b14610188575b600080fd5b3480156100d357600080fd5b506100dc6102cf565b6040516100e9919061090f565b60405180910390f35b3480156100fe57600080fd5b506101076102d5565b005b34801561011557600080fd5b50610130600480360381019061012b9190610831565b61033c565b60405161013d919061090f565b60405180910390f35b34801561015257600080fd5b5061015b610354565b604051610168919061090f565b60405180910390f35b34801561017d57600080fd5b5061018661035a565b005b34801561019457600080fd5b5061019d610429565b6040516101aa91906108b0565b60405180910390f35b3480156101bf57600080fd5b506101c8610452565b6040516101d591906108f4565b60405180910390f35b3480156101ea57600080fd5b506101f36104a9565b604051610200919061090f565b60405180910390f35b34801561021557600080fd5b50610230600480360381019061022b9190610831565b6104af565b60405161023d919061090f565b60405180910390f35b34801561025257600080fd5b5061025b6104f8565b604051610268919061090f565b60405180910390f35b610279610502565b005b34801561028757600080fd5b506102906105d9565b60405161029d919061090f565b60405180910390f35b3480156102b257600080fd5b506102cd60048036038101906102c89190610831565b6105df565b005b60035481565b6102dd610452565b6102e657600080fd5b60006102f0610429565b90508073ffffffffffffffffffffffffffffffffffffffff166108fc479081150290604051600060405180830381858888f19350505050158015610338573d6000803e3d6000fd5b5050565b60046020528060005260406000206000915090505481565b60055481565b610362610452565b61036b57600080fd5b600073ffffffffffffffffffffffffffffffffffffffff1660008054906101000a900473ffffffffffffffffffffffffffffffffffffffff1673ffffffffffffffffffffffffffffffffffffffff167f8be0079c531659141344cd1fd0a4f28419497f9722a3daafe3b4186f6b6457e060405160405180910390a360008060006101000a81548173ffffffffffffffffffffffffffffffffffffffff021916908373ffffffffffffffffffffffffffffffffffffffff160217905550565b60008060009054906101000a900473ffffffffffffffffffffffffffffffffffffffff16905090565b60008060009054906101000a900473ffffffffffffffffffffffffffffffffffffffff1673ffffffffffffffffffffffffffffffffffffffff163373ffffffffffffffffffffffffffffffffffffffff1614905090565b60015481565b6000600460008373ffffffffffffffffffffffffffffffffffffffff1673ffffffffffffffffffffffffffffffffffffffff168152602001908152602001600020549050919050565b6000600554905090565b61050c33346105fc565b600660009054906101000a900473ffffffffffffffffffffffffffffffffffffffff1673ffffffffffffffffffffffffffffffffffffffff1663a9059cbb33346040518363ffffffff1660e01b81526004016105699291906108cb565b602060405180830381600087803b15801561058357600080fd5b505af1158015610597573d6000803e3d6000fd5b505050506040513d601f19601f820116820180604052508101906105bb919061085a565b506105d1346005546106be90919063ffffffff16565b600581905550565b60025481565b6105e7610452565b6105f057600080fd5b6105f981610710565b50565b6000600460008473ffffffffffffffffffffffffffffffffffffffff1673ffffffffffffffffffffffffffffffffffffffff168152602001908152602001600020549050600061065583836106be90919063ffffffff16565b9050600154811015801561066b57506002548111155b61067457600080fd5b80600460008673ffffffffffffffffffffffffffffffffffffffff1673ffffffffffffffffffffffffffffffffffffffff1681526020019081526020016000208190555050505050565b60008082846106cd919061092a565b905083811015610706577f4e487b7100000000000000000000000000000000000000000000000000000000600052600160045260246000fd5b8091505092915050565b600073ffffffffffffffffffffffffffffffffffffffff168173ffffffffffffffffffffffffffffffffffffffff16141561074a57600080fd5b8073ffffffffffffffffffffffffffffffffffffffff1660008054906101000a900473ffffffffffffffffffffffffffffffffffffffff1673ffffffffffffffffffffffffffffffffffffffff167f8be0079c531659141344cd1fd0a4f28419497f9722a3daafe3b4186f6b6457e060405160405180910390a3806000806101000a81548173ffffffffffffffffffffffffffffffffffffffff021916908373ffffffffffffffffffffffffffffffffffffffff16021790555050565b600081359050610816816109f7565b92915050565b60008151905061082b81610a0e565b92915050565b60006020828403121561084357600080fd5b600061085184828501610807565b91505092915050565b60006020828403121561086c57600080fd5b600061087a8482850161081c565b91505092915050565b61088c81610980565b82525050565b61089b81610992565b82525050565b6108aa816109be565b82525050565b60006020820190506108c56000830184610883565b92915050565b60006040820190506108e06000830185610883565b6108ed60208301846108a1565b9392505050565b60006020820190506109096000830184610892565b92915050565b600060208201905061092460008301846108a1565b92915050565b6000610935826109be565b9150610940836109be565b9250827fffffffffffffffffffffffffffffffffffffffffffffffffffffffffffffffff03821115610975576109746109c8565b5b828201905092915050565b600061098b8261099e565b9050919050565b60008115159050919050565b600073ffffffffffffffffffffffffffffffffffffffff82169050919050565b6000819050919050565b7f4e487b7100000000000000000000000000000000000000000000000000000000600052601160045260246000fd5b610a0081610980565b8114610a0b57600080fd5b50565b610a1781610992565b8114610a2257600080fd5b5056fea2646970667358221220e9fcf597a5da26512fa485c0c42fdaa3e58d25ee6104ea6799531356da61fced64736f6c63430008040033",
  "linkReferences": {},
  "deployedLinkReferences": {}
}