{
  "_format": "hh-sol-artifact-1",
  "contractName": "Rebel",
  "sourceName": "contracts/rebel.sol",
  "abi": [
    {
      "inputs": [
        {
          "internalType": "address",
          "name": "rebelTokenAddress_",
          "type": "address"
        }
      ],
      "stateMutability": "nonpayable",
      "type": "constructor"
    },
    {
      "anonymous": false,
      "inputs": [
        {
          "indexed": false,
          "internalType": "uint256",
          "name": "postId",
          "type": "uint256"
        },
        {
          "indexed": false,
          "internalType": "string",
          "name": "name",
          "type": "string"
        },
        {
          "indexed": false,
          "internalType": "string",
          "name": "mediaHash",
          "type": "string"
        },
        {
          "indexed": false,
          "internalType": "string",
          "name": "metaHash",
          "type": "string"
        },
        {
          "indexed": false,
          "internalType": "string",
          "name": "mediaType",
          "type": "string"
        }
      ],
      "name": "NewPost",
      "type": "event"
    },
    {
      "anonymous": false,
      "inputs": [
        {
          "indexed": false,
          "internalType": "address",
          "name": "userAddress",
          "type": "address"
        }
      ],
      "name": "NewUser",
      "type": "event"
    },
    {
      "anonymous": false,
      "inputs": [
        {
          "indexed": true,
          "internalType": "address",
          "name": "previousOwner",
          "type": "address"
        },
        {
          "indexed": true,
          "internalType": "address",
          "name": "newOwner",
          "type": "address"
        }
      ],
      "name": "OwnershipTransferred",
      "type": "event"
    },
    {
      "inputs": [
        {
          "internalType": "string",
          "name": "_name",
          "type": "string"
        },
        {
          "internalType": "string",
          "name": "_mediaHash",
          "type": "string"
        },
        {
          "internalType": "string",
          "name": "_metaHash",
          "type": "string"
        },
        {
          "internalType": "string",
          "name": "_mediaType",
          "type": "string"
        }
      ],
      "name": "createPost",
      "outputs": [],
      "stateMutability": "nonpayable",
      "type": "function"
    },
    {
      "inputs": [
        {
          "internalType": "address",
          "name": "_user",
          "type": "address"
        }
      ],
      "name": "donateToUser",
      "outputs": [],
      "stateMutability": "payable",
      "type": "function"
    },
    {
      "inputs": [
        {
          "internalType": "uint32",
          "name": "_postId",
          "type": "uint32"
        }
      ],
      "name": "getAddressesWhoLiked",
      "outputs": [
        {
          "internalType": "address[]",
          "name": "addressArray",
          "type": "address[]"
        }
      ],
      "stateMutability": "view",
      "type": "function"
    },
    {
      "inputs": [
        {
          "internalType": "uint32",
          "name": "_postId",
          "type": "uint32"
        }
      ],
      "name": "getPostById",
      "outputs": [
        {
          "internalType": "string",
          "name": "name",
          "type": "string"
        },
        {
          "internalType": "string",
          "name": "mediaHash",
          "type": "string"
        },
        {
          "internalType": "string",
          "name": "metaHash",
          "type": "string"
        },
        {
          "internalType": "string",
          "name": "mediaType",
          "type": "string"
        },
        {
          "internalType": "uint32",
          "name": "likes",
          "type": "uint32"
        },
        {
          "internalType": "uint32",
          "name": "id",
          "type": "uint32"
        },
        {
          "internalType": "address",
          "name": "addressOwner",
          "type": "address"
        }
      ],
      "stateMutability": "view",
      "type": "function"
    },
    {
      "inputs": [],
      "name": "getPostCount",
      "outputs": [
        {
          "internalType": "uint32",
          "name": "postCount",
          "type": "uint32"
        }
      ],
      "stateMutability": "view",
      "type": "function"
    },
    {
      "inputs": [
        {
          "internalType": "uint32",
          "name": "endingIndex",
          "type": "uint32"
        }
      ],
      "name": "getPosts",
      "outputs": [
        {
          "internalType": "string[]",
          "name": "namesArray",
          "type": "string[]"
        },
        {
          "internalType": "string[]",
          "name": "mediaHashesArray",
          "type": "string[]"
        },
        {
          "internalType": "string[]",
          "name": "mediaTypeArray",
          "type": "string[]"
        },
        {
          "internalType": "uint32[]",
          "name": "likesArray",
          "type": "uint32[]"
        },
        {
          "internalType": "uint32[]",
          "name": "idArray",
          "type": "uint32[]"
        }
      ],
      "stateMutability": "view",
      "type": "function"
    },
    {
      "inputs": [
        {
          "internalType": "address",
          "name": "_owner",
          "type": "address"
        },
        {
          "internalType": "uint256",
          "name": "endingIndex",
          "type": "uint256"
        }
      ],
      "name": "getPostsByOwner",
      "outputs": [
        {
          "internalType": "string[]",
          "name": "namesArray",
          "type": "string[]"
        },
        {
          "internalType": "string[]",
          "name": "mediaHashesArray",
          "type": "string[]"
        },
        {
          "internalType": "string[]",
          "name": "mediaTypeArray",
          "type": "string[]"
        },
        {
          "internalType": "uint32[]",
          "name": "likesArray",
          "type": "uint32[]"
        },
        {
          "internalType": "uint32[]",
          "name": "idArray",
          "type": "uint32[]"
        }
      ],
      "stateMutability": "view",
      "type": "function"
    },
    {
      "inputs": [
        {
          "internalType": "address",
          "name": "_owner",
          "type": "address"
        },
        {
          "internalType": "uint256",
          "name": "endingIndex",
          "type": "uint256"
        }
      ],
      "name": "getPostsLikedByOwner",
      "outputs": [
        {
          "internalType": "string[]",
          "name": "namesArray",
          "type": "string[]"
        },
        {
          "internalType": "string[]",
          "name": "mediaHashesArray",
          "type": "string[]"
        },
        {
          "internalType": "string[]",
          "name": "mediaTypeArray",
          "type": "string[]"
        },
        {
          "internalType": "uint32[]",
          "name": "likesArray",
          "type": "uint32[]"
        },
        {
          "internalType": "uint32[]",
          "name": "idArray",
          "type": "uint32[]"
        }
      ],
      "stateMutability": "view",
      "type": "function"
    },
    {
      "inputs": [
        {
          "internalType": "address",
          "name": "_owner",
          "type": "address"
        }
      ],
      "name": "getPostsLikedByOwnerList",
      "outputs": [
        {
          "internalType": "uint32[]",
          "name": "postIdArray",
          "type": "uint32[]"
        },
        {
          "internalType": "uint256",
          "name": "likesCount",
          "type": "uint256"
        }
      ],
      "stateMutability": "view",
      "type": "function"
    },
    {
      "inputs": [],
      "name": "getRandomPosts",
      "outputs": [
        {
          "internalType": "string[]",
          "name": "namesArray",
          "type": "string[]"
        },
        {
          "internalType": "string[]",
          "name": "mediaHashesArray",
          "type": "string[]"
        },
        {
          "internalType": "string[]",
          "name": "mediaTypeArray",
          "type": "string[]"
        },
        {
          "internalType": "uint32[]",
          "name": "likesArray",
          "type": "uint32[]"
        },
        {
          "internalType": "uint32[]",
          "name": "idArray",
          "type": "uint32[]"
        }
      ],
      "stateMutability": "view",
      "type": "function"
    },
    {
      "inputs": [],
      "name": "getTxFee",
      "outputs": [
        {
          "internalType": "uint256",
          "name": "currentTxFee",
          "type": "uint256"
        }
      ],
      "stateMutability": "view",
      "type": "function"
    },
    {
      "inputs": [
        {
          "internalType": "address",
          "name": "_owner",
          "type": "address"
        }
      ],
      "name": "getUserByOwner",
      "outputs": [
        {
          "internalType": "uint256",
          "name": "amtEarned",
          "type": "uint256"
        },
        {
          "internalType": "uint32",
          "name": "postCount",
          "type": "uint32"
        },
        {
          "internalType": "uint32",
          "name": "totalLikes",
          "type": "uint32"
        }
      ],
      "stateMutability": "view",
      "type": "function"
    },
    {
      "inputs": [
        {
          "internalType": "address",
          "name": "_address",
          "type": "address"
        }
      ],
      "name": "getUserPostCount",
      "outputs": [
        {
          "internalType": "uint256",
          "name": "postCount",
          "type": "uint256"
        }
      ],
      "stateMutability": "view",
      "type": "function"
    },
    {
      "inputs": [
        {
          "internalType": "uint32[]",
          "name": "postIds",
          "type": "uint32[]"
        }
      ],
      "name": "isLiked",
      "outputs": [
        {
          "internalType": "bool[]",
          "name": "likedArray",
          "type": "bool[]"
        }
      ],
      "stateMutability": "view",
      "type": "function"
    },
    {
      "inputs": [],
      "name": "isOwner",
      "outputs": [
        {
          "internalType": "bool",
          "name": "",
          "type": "bool"
        }
      ],
      "stateMutability": "view",
      "type": "function"
    },
    {
      "inputs": [
        {
          "internalType": "uint32",
          "name": "_postId",
          "type": "uint32"
        }
      ],
      "name": "likePost",
      "outputs": [],
      "stateMutability": "payable",
      "type": "function"
    },
    {
      "inputs": [],
      "name": "owner",
      "outputs": [
        {
          "internalType": "address",
          "name": "",
          "type": "address"
        }
      ],
      "stateMutability": "view",
      "type": "function"
    },
    {
      "inputs": [
        {
          "internalType": "address",
          "name": "",
          "type": "address"
        },
        {
          "internalType": "uint256",
          "name": "",
          "type": "uint256"
        }
      ],
      "name": "ownerToPostIds",
      "outputs": [
        {
          "internalType": "uint32",
          "name": "",
          "type": "uint32"
        }
      ],
      "stateMutability": "view",
      "type": "function"
    },
    {
      "inputs": [
        {
          "internalType": "uint32",
          "name": "",
          "type": "uint32"
        },
        {
          "internalType": "uint256",
          "name": "",
          "type": "uint256"
        }
      ],
      "name": "postToLikingUsers",
      "outputs": [
        {
          "internalType": "address",
          "name": "",
          "type": "address"
        }
      ],
      "stateMutability": "view",
      "type": "function"
    },
    {
      "inputs": [
        {
          "internalType": "uint32",
          "name": "",
          "type": "uint32"
        }
      ],
      "name": "postToOwner",
      "outputs": [
        {
          "internalType": "address",
          "name": "",
          "type": "address"
        }
      ],
      "stateMutability": "view",
      "type": "function"
    },
    {
      "inputs": [],
      "name": "renounceOwnership",
      "outputs": [],
      "stateMutability": "nonpayable",
      "type": "function"
    },
    {
      "inputs": [
        {
          "internalType": "uint256",
          "name": "_fee",
          "type": "uint256"
        }
      ],
      "name": "setTxFee",
      "outputs": [],
      "stateMutability": "nonpayable",
      "type": "function"
    },
    {
      "inputs": [
        {
          "internalType": "address",
          "name": "newOwner",
          "type": "address"
        }
      ],
      "name": "transferOwnership",
      "outputs": [],
      "stateMutability": "nonpayable",
      "type": "function"
    },
    {
      "inputs": [
        {
          "internalType": "uint32",
          "name": "_postId",
          "type": "uint32"
        }
      ],
      "name": "unlikePost",
      "outputs": [],
      "stateMutability": "nonpayable",
      "type": "function"
    },
    {
      "inputs": [],
      "name": "withdraw",
      "outputs": [],
      "stateMutability": "nonpayable",
      "type": "function"
    }
  ],
  "bytecode": "0x608060405266470de4df820000600b556064600c556103e8600d55612710600e55620186a0600f55620f42406010553480156200003b57600080fd5b50604051620061773803806200617783398181016040528101906200006191906200017b565b336000806101000a81548173ffffffffffffffffffffffffffffffffffffffff021916908373ffffffffffffffffffffffffffffffffffffffff16021790555060008054906101000a900473ffffffffffffffffffffffffffffffffffffffff1673ffffffffffffffffffffffffffffffffffffffff16600073ffffffffffffffffffffffffffffffffffffffff167f8be0079c531659141344cd1fd0a4f28419497f9722a3daafe3b4186f6b6457e060405160405180910390a380600a60006101000a81548173ffffffffffffffffffffffffffffffffffffffff021916908373ffffffffffffffffffffffffffffffffffffffff16021790555050620001f5565b6000815190506200017581620001db565b92915050565b6000602082840312156200018e57600080fd5b60006200019e8482850162000164565b91505092915050565b6000620001b482620001bb565b9050919050565b600073ffffffffffffffffffffffffffffffffffffffff82169050919050565b620001e681620001a7565b8114620001f257600080fd5b50565b615f7280620002056000396000f3fe6080604052600436106101655760003560e01c80638f32d59b116100d1578063c12c49a71161008a578063daac725211610064578063daac725214610571578063f05d16f7146105b0578063f2fde38b146105d9578063f67366161461060257610165565b8063c12c49a7146104b2578063c55916d6146104f3578063c7457c591461053457610165565b80638f32d59b1461038a5780639041681a146103b55780639e7d207d146103de578063a1df01a514610409578063a2e0a11b14610446578063bcc954071461048757610165565b80632da1cb59116101235780632da1cb59146102a35780633ccfd60b146102e657806360b6a370146102fd578063715018a61461031957806375e1a4cf146103305780638da5cb5b1461035f57610165565b8062a098321461016a57806304a1d132146101a75780630d57f91f146101e45780631729eb331461020d5780631a7d0b57146102295780631d987ba914610266575b600080fd5b34801561017657600080fd5b50610191600480360381019061018c91906150c6565b610640565b60405161019e9190615811565b60405180910390f35b3480156101b357600080fd5b506101ce60048036038101906101c9919061512b565b61068c565b6040516101db91906156a3565b60405180910390f35b3480156101f057600080fd5b5061020b60048036038101906102069190615195565b610829565b005b61022760048036038101906102229190615281565b610bc4565b005b34801561023557600080fd5b50610250600480360381019061024b9190615281565b6110ee565b60405161025d919061563d565b60405180910390f35b34801561027257600080fd5b5061028d600480360381019061028891906150ef565b611121565b60405161029a9190615863565b60405180910390f35b3480156102af57600080fd5b506102ca60048036038101906102c59190615281565b61116a565b6040516102dd9796959493929190615786565b60405180910390f35b3480156102f257600080fd5b506102fb61144d565b005b610317600480360381019061031291906150c6565b6114b4565b005b34801561032557600080fd5b5061032e6116fb565b005b34801561033c57600080fd5b506103456117ca565b6040516103569594939291906156c5565b60405180910390f35b34801561036b57600080fd5b50610374611f0a565b604051610381919061563d565b60405180910390f35b34801561039657600080fd5b5061039f611f33565b6040516103ac919061576b565b60405180910390f35b3480156103c157600080fd5b506103dc60048036038101906103d79190615281565b611f8a565b005b3480156103ea57600080fd5b506103f3612203565b6040516104009190615811565b60405180910390f35b34801561041557600080fd5b50610430600480360381019061042b9190615281565b61220d565b60405161043d9190615681565b60405180910390f35b34801561045257600080fd5b5061046d600480360381019061046891906150ef565b6125c6565b60405161047e9594939291906156c5565b60405180910390f35b34801561049357600080fd5b5061049c612cd9565b6040516104a99190615863565b60405180910390f35b3480156104be57600080fd5b506104d960048036038101906104d49190615281565b612cf3565b6040516104ea9594939291906156c5565b60405180910390f35b3480156104ff57600080fd5b5061051a600480360381019061051591906150ef565b6133f6565b60405161052b9594939291906156c5565b60405180910390f35b34801561054057600080fd5b5061055b600480360381019061055691906152aa565b613bb9565b604051610568919061563d565b60405180910390f35b34801561057d57600080fd5b50610598600480360381019061059391906150c6565b613c07565b6040516105a79392919061582c565b60405180910390f35b3480156105bc57600080fd5b506105d760048036038101906105d29190615258565b613cf5565b005b3480156105e557600080fd5b5061060060048036038101906105fb91906150c6565b613d10565b005b34801561060e57600080fd5b50610629600480360381019061062491906150c6565b613d2d565b60405161063792919061573b565b60405180910390f35b6000600760008373ffffffffffffffffffffffffffffffffffffffff1673ffffffffffffffffffffffffffffffffffffffff168152602001908152602001600020805490509050919050565b60606000825167ffffffffffffffff8111156106d1577f4e487b7100000000000000000000000000000000000000000000000000000000600052604160045260246000fd5b6040519080825280602002602001820160405280156106ff5781602001602082028036833780820191505090505b50905060005b835181101561081f5760006005600086848151811061074d577f4e487b7100000000000000000000000000000000000000000000000000000000600052603260045260246000fd5b602002602001015163ffffffff1663ffffffff16815260200190815260200160002090508060050160003373ffffffffffffffffffffffffffffffffffffffff1673ffffffffffffffffffffffffffffffffffffffff16815260200190815260200160002060009054906101000a900460ff168383815181106107f9577f4e487b7100000000000000000000000000000000000000000000000000000000600052603260045260246000fd5b60200260200101901515908115158152505050808061081790615d12565b915050610705565b5080915050919050565b60011515600260003373ffffffffffffffffffffffffffffffffffffffff1673ffffffffffffffffffffffffffffffffffffffff16815260200190815260200160002060009054906101000a900460ff1615151461088b5761088a336140e9565b5b600060056000600460009054906101000a900463ffffffff1663ffffffff1663ffffffff1681526020019081526020016000209050848160000190805190602001906108d8929190614ed1565b50838160010190805190602001906108f1929190614ed1565b508281600201908051906020019061090a929190614ed1565b5081816003019080519060200190610923929190614ed1565b5060008160040160006101000a81548163ffffffff021916908363ffffffff1602179055503360066000600460009054906101000a900463ffffffff1663ffffffff1663ffffffff16815260200190815260200160002060006101000a81548173ffffffffffffffffffffffffffffffffffffffff021916908373ffffffffffffffffffffffffffffffffffffffff160217905550600760003373ffffffffffffffffffffffffffffffffffffffff1673ffffffffffffffffffffffffffffffffffffffff168152602001908152602001600020600460009054906101000a900463ffffffff1690806001815401808255809150506001900390600052602060002090600891828204019190066004029091909190916101000a81548163ffffffff021916908363ffffffff160217905550610ac060018060003373ffffffffffffffffffffffffffffffffffffffff1673ffffffffffffffffffffffffffffffffffffffff16815260200190815260200160002060010160009054906101000a900463ffffffff1663ffffffff1661421190919063ffffffff16565b600160003373ffffffffffffffffffffffffffffffffffffffff1673ffffffffffffffffffffffffffffffffffffffff16815260200190815260200160002060010160006101000a81548163ffffffff021916908363ffffffff1602179055507f6798fa38b49f8e823ad7cf3a48f5cde062b19e320ed4880f584d940844689ff5600460009054906101000a900463ffffffff1686868686604051610b6995949392919061587e565b60405180910390a1610b9d6001600460009054906101000a900463ffffffff1663ffffffff1661421190919063ffffffff16565b600460006101000a81548163ffffffff021916908363ffffffff1602179055505050505050565b60011515600260003373ffffffffffffffffffffffffffffffffffffffff1673ffffffffffffffffffffffffffffffffffffffff16815260200190815260200160002060009054906101000a900460ff16151514610c2657610c25336140e9565b5b8060011515600560008363ffffffff1663ffffffff16815260200190815260200160002060050160003373ffffffffffffffffffffffffffffffffffffffff1673ffffffffffffffffffffffffffffffffffffffff16815260200190815260200160002060009054906101000a900460ff1615151415610ca557600080fd5b600b54341015610cb457600080fd5b610d006001600560008563ffffffff1663ffffffff16815260200190815260200160002060040160009054906101000a900463ffffffff1663ffffffff1661421190919063ffffffff16565b600560008463ffffffff1663ffffffff16815260200190815260200160002060040160006101000a81548163ffffffff021916908363ffffffff1602179055506000600660008463ffffffff1663ffffffff16815260200190815260200160002060009054906101000a900473ffffffffffffffffffffffffffffffffffffffff1690506001600560008563ffffffff1663ffffffff16815260200190815260200160002060050160003373ffffffffffffffffffffffffffffffffffffffff1673ffffffffffffffffffffffffffffffffffffffff16815260200190815260200160002060006101000a81548160ff021916908315150217905550600360003373ffffffffffffffffffffffffffffffffffffffff1673ffffffffffffffffffffffffffffffffffffffff1681526020019081526020016000208390806001815401808255809150506001900390600052602060002090600891828204019190066004029091909190916101000a81548163ffffffff021916908363ffffffff160217905550600860008463ffffffff1663ffffffff168152602001908152602001600020339080600181540180825580915050600190039060005260206000200160009091909190916101000a81548173ffffffffffffffffffffffffffffffffffffffff021916908373ffffffffffffffffffffffffffffffffffffffff1602179055506000610f306062610f2260643461426f90919063ffffffff16565b61428a90919063ffffffff16565b90508173ffffffffffffffffffffffffffffffffffffffff166108fc829081150290604051600060405180830381858888f19350505050158015610f78573d6000803e3d6000fd5b50610fce81600160008573ffffffffffffffffffffffffffffffffffffffff1673ffffffffffffffffffffffffffffffffffffffff168152602001908152602001600020600001546142f990919063ffffffff16565b600160008473ffffffffffffffffffffffffffffffffffffffff1673ffffffffffffffffffffffffffffffffffffffff1681526020019081526020016000206000018190555061107f60018060008573ffffffffffffffffffffffffffffffffffffffff1673ffffffffffffffffffffffffffffffffffffffff16815260200190815260200160002060010160049054906101000a900463ffffffff1663ffffffff1661421190919063ffffffff16565b600160008473ffffffffffffffffffffffffffffffffffffffff1673ffffffffffffffffffffffffffffffffffffffff16815260200190815260200160002060010160046101000a81548163ffffffff021916908363ffffffff1602179055506110e88261434b565b50505050565b60066020528060005260406000206000915054906101000a900473ffffffffffffffffffffffffffffffffffffffff1681565b6007602052816000526040600020818154811061113d57600080fd5b9060005260206000209060089182820401919006600402915091509054906101000a900463ffffffff1681565b606080606080600080600080600560008a63ffffffff1663ffffffff16815260200190815260200160002090506000600660008b63ffffffff1663ffffffff16815260200190815260200160002060009054906101000a900473ffffffffffffffffffffffffffffffffffffffff169050816000018260010183600201846003018560040160009054906101000a900463ffffffff168e8686805461120e90615caf565b80601f016020809104026020016040519081016040528092919081815260200182805461123a90615caf565b80156112875780601f1061125c57610100808354040283529160200191611287565b820191906000526020600020905b81548152906001019060200180831161126a57829003601f168201915b5050505050965085805461129a90615caf565b80601f01602080910402602001604051908101604052809291908181526020018280546112c690615caf565b80156113135780601f106112e857610100808354040283529160200191611313565b820191906000526020600020905b8154815290600101906020018083116112f657829003601f168201915b5050505050955084805461132690615caf565b80601f016020809104026020016040519081016040528092919081815260200182805461135290615caf565b801561139f5780601f106113745761010080835404028352916020019161139f565b820191906000526020600020905b81548152906001019060200180831161138257829003601f168201915b505050505094508380546113b290615caf565b80601f01602080910402602001604051908101604052809291908181526020018280546113de90615caf565b801561142b5780601f106114005761010080835404028352916020019161142b565b820191906000526020600020905b81548152906001019060200180831161140e57829003601f168201915b5050505050935098509850985098509850985098505050919395979092949650565b611455611f33565b61145e57600080fd5b6000611468611f0a565b90508073ffffffffffffffffffffffffffffffffffffffff166108fc479081150290604051600060405180830381858888f193505050501580156114b0573d6000803e3d6000fd5b5050565b8060011515600260008373ffffffffffffffffffffffffffffffffffffffff1673ffffffffffffffffffffffffffffffffffffffff16815260200190815260200160002060009054906101000a900460ff1615151461151757611516816140e9565b5b60011515600260003373ffffffffffffffffffffffffffffffffffffffff1673ffffffffffffffffffffffffffffffffffffffff16815260200190815260200160002060009054906101000a900460ff1615151461157957611578336140e9565b5b600034101561158757600080fd5b60011515600260008473ffffffffffffffffffffffffffffffffffffffff1673ffffffffffffffffffffffffffffffffffffffff16815260200190815260200160002060009054906101000a900460ff161515146115e9576115e8826140e9565b5b6000611612606261160460643461426f90919063ffffffff16565b61428a90919063ffffffff16565b90508273ffffffffffffffffffffffffffffffffffffffff166108fc829081150290604051600060405180830381858888f1935050505015801561165a573d6000803e3d6000fd5b506116b081600160008673ffffffffffffffffffffffffffffffffffffffff1673ffffffffffffffffffffffffffffffffffffffff168152602001908152602001600020600001546142f990919063ffffffff16565b600160008573ffffffffffffffffffffffffffffffffffffffff1673ffffffffffffffffffffffffffffffffffffffff16815260200190815260200160002060000181905550505050565b611703611f33565b61170c57600080fd5b600073ffffffffffffffffffffffffffffffffffffffff1660008054906101000a900473ffffffffffffffffffffffffffffffffffffffff1673ffffffffffffffffffffffffffffffffffffffff167f8be0079c531659141344cd1fd0a4f28419497f9722a3daafe3b4186f6b6457e060405160405180910390a360008060006101000a81548173ffffffffffffffffffffffffffffffffffffffff021916908373ffffffffffffffffffffffffffffffffffffffff160217905550565b60608060608060606000601490506000808263ffffffff1667ffffffffffffffff811115611821577f4e487b7100000000000000000000000000000000000000000000000000000000600052604160045260246000fd5b60405190808252806020026020018201604052801561185457816020015b606081526020019060019003908161183f5790505b50905060008363ffffffff1667ffffffffffffffff81111561189f577f4e487b7100000000000000000000000000000000000000000000000000000000600052604160045260246000fd5b6040519080825280602002602001820160405280156118d257816020015b60608152602001906001900390816118bd5790505b50905060008463ffffffff1667ffffffffffffffff81111561191d577f4e487b7100000000000000000000000000000000000000000000000000000000600052604160045260246000fd5b60405190808252806020026020018201604052801561195057816020015b606081526020019060019003908161193b5790505b50905060008563ffffffff1667ffffffffffffffff81111561199b577f4e487b7100000000000000000000000000000000000000000000000000000000600052604160045260246000fd5b6040519080825280602002602001820160405280156119c95781602001602082028036833780820191505090505b50905060008663ffffffff1667ffffffffffffffff811115611a14577f4e487b7100000000000000000000000000000000000000000000000000000000600052604160045260246000fd5b604051908082528060200260200182016040528015611a425781602001602082028036833780820191505090505b5090506000600460009054906101000a900463ffffffff1663ffffffff161415611a815784848484849b509b509b509b509b5050505050505050611f03565b60005b8763ffffffff168163ffffffff161015611b6357600460009054906101000a900463ffffffff1663ffffffff16423389604051602001611ac693929190615600565b6040516020818303038152906040528051906020012060001c611ae99190615dc8565b828263ffffffff1681518110611b28577f4e487b7100000000000000000000000000000000000000000000000000000000600052603260045260246000fd5b602002602001019063ffffffff16908163ffffffff16815250508680611b4d90615d5b565b9750508080611b5b90615d5b565b915050611a84565b5060005b8763ffffffff168163ffffffff161015611eeb57600060056000848463ffffffff1681518110611bc0577f4e487b7100000000000000000000000000000000000000000000000000000000600052603260045260246000fd5b602002602001015163ffffffff1663ffffffff1681526020019081526020016000209050806000018054611bf390615caf565b80601f0160208091040260200160405190810160405280929190818152602001828054611c1f90615caf565b8015611c6c5780601f10611c4157610100808354040283529160200191611c6c565b820191906000526020600020905b815481529060010190602001808311611c4f57829003601f168201915b5050505050878363ffffffff1681518110611cb0577f4e487b7100000000000000000000000000000000000000000000000000000000600052603260045260246000fd5b6020026020010181905250806001018054611cca90615caf565b80601f0160208091040260200160405190810160405280929190818152602001828054611cf690615caf565b8015611d435780601f10611d1857610100808354040283529160200191611d43565b820191906000526020600020905b815481529060010190602001808311611d2657829003601f168201915b5050505050868363ffffffff1681518110611d87577f4e487b7100000000000000000000000000000000000000000000000000000000600052603260045260246000fd5b6020026020010181905250806003018054611da190615caf565b80601f0160208091040260200160405190810160405280929190818152602001828054611dcd90615caf565b8015611e1a5780601f10611def57610100808354040283529160200191611e1a565b820191906000526020600020905b815481529060010190602001808311611dfd57829003601f168201915b5050505050858363ffffffff1681518110611e5e577f4e487b7100000000000000000000000000000000000000000000000000000000600052603260045260246000fd5b60200260200101819052508060040160009054906101000a900463ffffffff16848363ffffffff1681518110611ebd577f4e487b7100000000000000000000000000000000000000000000000000000000600052603260045260246000fd5b602002602001019063ffffffff16908163ffffffff1681525050508080611ee390615d5b565b915050611b67565b5084848484849b509b509b509b509b50505050505050505b9091929394565b60008060009054906101000a900473ffffffffffffffffffffffffffffffffffffffff16905090565b60008060009054906101000a900473ffffffffffffffffffffffffffffffffffffffff1673ffffffffffffffffffffffffffffffffffffffff163373ffffffffffffffffffffffffffffffffffffffff1614905090565b60011515600260003373ffffffffffffffffffffffffffffffffffffffff1673ffffffffffffffffffffffffffffffffffffffff16815260200190815260200160002060009054906101000a900460ff16151514611fec57611feb336140e9565b5b6120386001600560008463ffffffff1663ffffffff16815260200190815260200160002060040160009054906101000a900463ffffffff1663ffffffff16614d3490919063ffffffff16565b600560008363ffffffff1663ffffffff16815260200190815260200160002060040160006101000a81548163ffffffff021916908363ffffffff1602179055506000600560008363ffffffff1663ffffffff16815260200190815260200160002060050160003373ffffffffffffffffffffffffffffffffffffffff1673ffffffffffffffffffffffffffffffffffffffff16815260200190815260200160002060006101000a81548160ff0219169083151502179055506000600660008363ffffffff1663ffffffff16815260200190815260200160002060009054906101000a900473ffffffffffffffffffffffffffffffffffffffff16905061219f60018060008473ffffffffffffffffffffffffffffffffffffffff1673ffffffffffffffffffffffffffffffffffffffff16815260200190815260200160002060010160049054906101000a900463ffffffff1663ffffffff16614d3490919063ffffffff16565b600160008373ffffffffffffffffffffffffffffffffffffffff1673ffffffffffffffffffffffffffffffffffffffff16815260200190815260200160002060010160046101000a81548163ffffffff021916908363ffffffff1602179055505050565b6000600b54905090565b60606000600860008463ffffffff1663ffffffff1681526020019081526020016000208054806020026020016040519081016040528092919081815260200182805480156122b057602002820191906000526020600020905b8160009054906101000a900473ffffffffffffffffffffffffffffffffffffffff1673ffffffffffffffffffffffffffffffffffffffff1681526020019060010190808311612266575b505050505090506000805b82518110156123b0576000600560008763ffffffff1663ffffffff1681526020019081526020016000206005016000858481518110612323577f4e487b7100000000000000000000000000000000000000000000000000000000600052603260045260246000fd5b602002602001015173ffffffffffffffffffffffffffffffffffffffff1673ffffffffffffffffffffffffffffffffffffffff16815260200190815260200160002060009054906101000a900460ff16905060019050801561239c5761239960018463ffffffff1661421190919063ffffffff16565b92505b5080806123a890615d12565b9150506122bb565b5060008163ffffffff1667ffffffffffffffff8111156123f9577f4e487b7100000000000000000000000000000000000000000000000000000000600052604160045260246000fd5b6040519080825280602002602001820160405280156124275781602001602082028036833780820191505090505b50905060005b83518110156125ba576000600560008863ffffffff1663ffffffff1681526020019081526020016000206005016000868481518110612495577f4e487b7100000000000000000000000000000000000000000000000000000000600052603260045260246000fd5b602002602001015173ffffffffffffffffffffffffffffffffffffffff1673ffffffffffffffffffffffffffffffffffffffff16815260200190815260200160002060009054906101000a900460ff1690506001905080156125a65784828151811061252a577f4e487b7100000000000000000000000000000000000000000000000000000000600052603260045260246000fd5b602002602001015183838151811061256b577f4e487b7100000000000000000000000000000000000000000000000000000000600052603260045260246000fd5b602002602001019073ffffffffffffffffffffffffffffffffffffffff16908173ffffffffffffffffffffffffffffffffffffffff16815250505b5080806125b290615d12565b91505061242d565b50809350505050919050565b606080606080606060006125d988613d2d565b50905060006014905081518811156125f057815197505b878111156125fc578790505b60008167ffffffffffffffff81111561263e577f4e487b7100000000000000000000000000000000000000000000000000000000600052604160045260246000fd5b60405190808252806020026020018201604052801561267157816020015b606081526020019060019003908161265c5790505b50905060008267ffffffffffffffff8111156126b6577f4e487b7100000000000000000000000000000000000000000000000000000000600052604160045260246000fd5b6040519080825280602002602001820160405280156126e957816020015b60608152602001906001900390816126d45790505b50905060008367ffffffffffffffff81111561272e577f4e487b7100000000000000000000000000000000000000000000000000000000600052604160045260246000fd5b60405190808252806020026020018201604052801561276157816020015b606081526020019060019003908161274c5790505b50905060008467ffffffffffffffff8111156127a6577f4e487b7100000000000000000000000000000000000000000000000000000000600052604160045260246000fd5b6040519080825280602002602001820160405280156127d45781602001602082028036833780820191505090505b50905060008567ffffffffffffffff811115612819577f4e487b7100000000000000000000000000000000000000000000000000000000600052604160045260246000fd5b6040519080825280602002602001820160405280156128475781602001602082028036833780820191505090505b50905060008751141561286f5784848484849b509b509b509b509b5050505050505050612ccf565b6000612884878f614d8d90919063ffffffff16565b90506000808290505b8f811015612cb5576000600560008c84815181106128d4577f4e487b7100000000000000000000000000000000000000000000000000000000600052603260045260246000fd5b602002602001015163ffffffff1663ffffffff168152602001908152602001600020905080600001805461290790615caf565b80601f016020809104026020016040519081016040528092919081815260200182805461293390615caf565b80156129805780601f1061295557610100808354040283529160200191612980565b820191906000526020600020905b81548152906001019060200180831161296357829003601f168201915b5050505050898463ffffffff16815181106129c4577f4e487b7100000000000000000000000000000000000000000000000000000000600052603260045260246000fd5b60200260200101819052508060010180546129de90615caf565b80601f0160208091040260200160405190810160405280929190818152602001828054612a0a90615caf565b8015612a575780601f10612a2c57610100808354040283529160200191612a57565b820191906000526020600020905b815481529060010190602001808311612a3a57829003601f168201915b5050505050888463ffffffff1681518110612a9b577f4e487b7100000000000000000000000000000000000000000000000000000000600052603260045260246000fd5b6020026020010181905250806003018054612ab590615caf565b80601f0160208091040260200160405190810160405280929190818152602001828054612ae190615caf565b8015612b2e5780601f10612b0357610100808354040283529160200191612b2e565b820191906000526020600020905b815481529060010190602001808311612b1157829003601f168201915b5050505050878463ffffffff1681518110612b72577f4e487b7100000000000000000000000000000000000000000000000000000000600052603260045260246000fd5b60200260200101819052508060040160009054906101000a900463ffffffff16868463ffffffff1681518110612bd1577f4e487b7100000000000000000000000000000000000000000000000000000000600052603260045260246000fd5b602002602001019063ffffffff16908163ffffffff16815250508a8281518110612c24577f4e487b7100000000000000000000000000000000000000000000000000000000600052603260045260246000fd5b6020026020010151858463ffffffff1681518110612c6b577f4e487b7100000000000000000000000000000000000000000000000000000000600052603260045260246000fd5b602002602001019063ffffffff16908163ffffffff1681525050612c9f60018463ffffffff1661421190919063ffffffff16565b9250508080612cad90615d12565b91505061288d565b5086868686869d509d509d509d509d505050505050505050505b9295509295909350565b6000600460009054906101000a900463ffffffff16905090565b6060806060806060600060149050600460009054906101000a900463ffffffff1663ffffffff168763ffffffff161115612d3d57600460009054906101000a900463ffffffff1696505b8663ffffffff168163ffffffff161115612d55578690505b60008163ffffffff1667ffffffffffffffff811115612d9d577f4e487b7100000000000000000000000000000000000000000000000000000000600052604160045260246000fd5b604051908082528060200260200182016040528015612dd057816020015b6060815260200190600190039081612dbb5790505b50905060008263ffffffff1667ffffffffffffffff811115612e1b577f4e487b7100000000000000000000000000000000000000000000000000000000600052604160045260246000fd5b604051908082528060200260200182016040528015612e4e57816020015b6060815260200190600190039081612e395790505b50905060008363ffffffff1667ffffffffffffffff811115612e99577f4e487b7100000000000000000000000000000000000000000000000000000000600052604160045260246000fd5b604051908082528060200260200182016040528015612ecc57816020015b6060815260200190600190039081612eb75790505b50905060008463ffffffff1667ffffffffffffffff811115612f17577f4e487b7100000000000000000000000000000000000000000000000000000000600052604160045260246000fd5b604051908082528060200260200182016040528015612f455781602001602082028036833780820191505090505b50905060008563ffffffff1667ffffffffffffffff811115612f90577f4e487b7100000000000000000000000000000000000000000000000000000000600052604160045260246000fd5b604051908082528060200260200182016040528015612fbe5781602001602082028036833780820191505090505b5090506000600460009054906101000a900463ffffffff1663ffffffff161415612ffc5784848484849a509a509a509a509a505050505050506133ed565b6000613017878e63ffffffff16614d3490919063ffffffff16565b90506000808290505b8e63ffffffff168163ffffffff1610156133d4576000600560008363ffffffff1663ffffffff168152602001908152602001600020905080600001805461306690615caf565b80601f016020809104026020016040519081016040528092919081815260200182805461309290615caf565b80156130df5780601f106130b4576101008083540402835291602001916130df565b820191906000526020600020905b8154815290600101906020018083116130c257829003601f168201915b5050505050898463ffffffff1681518110613123577f4e487b7100000000000000000000000000000000000000000000000000000000600052603260045260246000fd5b602002602001018190525080600101805461313d90615caf565b80601f016020809104026020016040519081016040528092919081815260200182805461316990615caf565b80156131b65780601f1061318b576101008083540402835291602001916131b6565b820191906000526020600020905b81548152906001019060200180831161319957829003601f168201915b5050505050888463ffffffff16815181106131fa577f4e487b7100000000000000000000000000000000000000000000000000000000600052603260045260246000fd5b602002602001018190525080600301805461321490615caf565b80601f016020809104026020016040519081016040528092919081815260200182805461324090615caf565b801561328d5780601f106132625761010080835404028352916020019161328d565b820191906000526020600020905b81548152906001019060200180831161327057829003601f168201915b5050505050878463ffffffff16815181106132d1577f4e487b7100000000000000000000000000000000000000000000000000000000600052603260045260246000fd5b60200260200101819052508060040160009054906101000a900463ffffffff16868463ffffffff1681518110613330577f4e487b7100000000000000000000000000000000000000000000000000000000600052603260045260246000fd5b602002602001019063ffffffff16908163ffffffff168152505081858463ffffffff168151811061338a577f4e487b7100000000000000000000000000000000000000000000000000000000600052603260045260246000fd5b602002602001019063ffffffff16908163ffffffff16815250506133be60018463ffffffff1661421190919063ffffffff16565b92505080806133cc90615d5b565b915050613020565b5086868686869c509c509c509c509c5050505050505050505b91939590929450565b60608060608060606000600760008973ffffffffffffffffffffffffffffffffffffffff1673ffffffffffffffffffffffffffffffffffffffff1681526020019081526020016000208054806020026020016040519081016040528092919081815260200182805480156134b557602002820191906000526020600020906000905b82829054906101000a900463ffffffff1663ffffffff16815260200190600401906020826003010492830192600103820291508084116134785790505b5050505050905060006014905081518811156134d057815197505b878111156134dc578790505b60008167ffffffffffffffff81111561351e577f4e487b7100000000000000000000000000000000000000000000000000000000600052604160045260246000fd5b60405190808252806020026020018201604052801561355157816020015b606081526020019060019003908161353c5790505b50905060008267ffffffffffffffff811115613596577f4e487b7100000000000000000000000000000000000000000000000000000000600052604160045260246000fd5b6040519080825280602002602001820160405280156135c957816020015b60608152602001906001900390816135b45790505b50905060008367ffffffffffffffff81111561360e577f4e487b7100000000000000000000000000000000000000000000000000000000600052604160045260246000fd5b60405190808252806020026020018201604052801561364157816020015b606081526020019060019003908161362c5790505b50905060008467ffffffffffffffff811115613686577f4e487b7100000000000000000000000000000000000000000000000000000000600052604160045260246000fd5b6040519080825280602002602001820160405280156136b45781602001602082028036833780820191505090505b50905060008567ffffffffffffffff8111156136f9577f4e487b7100000000000000000000000000000000000000000000000000000000600052604160045260246000fd5b6040519080825280602002602001820160405280156137275781602001602082028036833780820191505090505b50905060008751141561374f5784848484849b509b509b509b509b5050505050505050613baf565b6000613764878f614d8d90919063ffffffff16565b90506000808290505b8f811015613b95576000600560008c84815181106137b4577f4e487b7100000000000000000000000000000000000000000000000000000000600052603260045260246000fd5b602002602001015163ffffffff1663ffffffff16815260200190815260200160002090508060000180546137e790615caf565b80601f016020809104026020016040519081016040528092919081815260200182805461381390615caf565b80156138605780601f1061383557610100808354040283529160200191613860565b820191906000526020600020905b81548152906001019060200180831161384357829003601f168201915b5050505050898463ffffffff16815181106138a4577f4e487b7100000000000000000000000000000000000000000000000000000000600052603260045260246000fd5b60200260200101819052508060010180546138be90615caf565b80601f01602080910402602001604051908101604052809291908181526020018280546138ea90615caf565b80156139375780601f1061390c57610100808354040283529160200191613937565b820191906000526020600020905b81548152906001019060200180831161391a57829003601f168201915b5050505050888463ffffffff168151811061397b577f4e487b7100000000000000000000000000000000000000000000000000000000600052603260045260246000fd5b602002602001018190525080600301805461399590615caf565b80601f01602080910402602001604051908101604052809291908181526020018280546139c190615caf565b8015613a0e5780601f106139e357610100808354040283529160200191613a0e565b820191906000526020600020905b8154815290600101906020018083116139f157829003601f168201915b5050505050878463ffffffff1681518110613a52577f4e487b7100000000000000000000000000000000000000000000000000000000600052603260045260246000fd5b60200260200101819052508060040160009054906101000a900463ffffffff16868463ffffffff1681518110613ab1577f4e487b7100000000000000000000000000000000000000000000000000000000600052603260045260246000fd5b602002602001019063ffffffff16908163ffffffff16815250508a8281518110613b04577f4e487b7100000000000000000000000000000000000000000000000000000000600052603260045260246000fd5b6020026020010151858463ffffffff1681518110613b4b577f4e487b7100000000000000000000000000000000000000000000000000000000600052603260045260246000fd5b602002602001019063ffffffff16908163ffffffff1681525050613b7f60018463ffffffff1661421190919063ffffffff16565b9250508080613b8d90615d12565b91505061376d565b5086868686869d509d509d509d509d505050505050505050505b9295509295909350565b60086020528160005260406000208181548110613bd557600080fd5b906000526020600020016000915091509054906101000a900473ffffffffffffffffffffffffffffffffffffffff1681565b600080600060011515600260008673ffffffffffffffffffffffffffffffffffffffff1673ffffffffffffffffffffffffffffffffffffffff16815260200190815260200160002060009054906101000a900460ff16151514613c74576000806000925092509250613cee565b6000600160008673ffffffffffffffffffffffffffffffffffffffff1673ffffffffffffffffffffffffffffffffffffffff168152602001908152602001600020905080600001548160010160009054906101000a900463ffffffff168260010160049054906101000a900463ffffffff16935093509350505b9193909250565b613cfd611f33565b613d0657600080fd5b80600b8190555050565b613d18611f33565b613d2157600080fd5b613d2a81614dda565b50565b6060600080600360008573ffffffffffffffffffffffffffffffffffffffff1673ffffffffffffffffffffffffffffffffffffffff168152602001908152602001600020805480602002602001604051908101604052809291908181526020018280548015613de757602002820191906000526020600020906000905b82829054906101000a900463ffffffff1663ffffffff1681526020019060040190602082600301049283019260010382029150808411613daa5790505b505050505090506000805b8251811015613ee757600060056000858481518110613e3a577f4e487b7100000000000000000000000000000000000000000000000000000000600052603260045260246000fd5b602002602001015163ffffffff1663ffffffff16815260200190815260200160002060050160008873ffffffffffffffffffffffffffffffffffffffff1673ffffffffffffffffffffffffffffffffffffffff16815260200190815260200160002060009054906101000a900460ff169050600190508015613ed357613ed060018463ffffffff1661421190919063ffffffff16565b92505b508080613edf90615d12565b915050613df2565b5060008163ffffffff1667ffffffffffffffff811115613f30577f4e487b7100000000000000000000000000000000000000000000000000000000600052604160045260246000fd5b604051908082528060200260200182016040528015613f5e5781602001602082028036833780820191505090505b50905060005b83518110156140d157600060056000868481518110613fac577f4e487b7100000000000000000000000000000000000000000000000000000000600052603260045260246000fd5b602002602001015163ffffffff1663ffffffff16815260200190815260200160002060050160008973ffffffffffffffffffffffffffffffffffffffff1673ffffffffffffffffffffffffffffffffffffffff16815260200190815260200160002060009054906101000a900460ff1690506001905080156140bd57848281518110614061577f4e487b7100000000000000000000000000000000000000000000000000000000600052603260045260246000fd5b60200260200101518383815181106140a2577f4e487b7100000000000000000000000000000000000000000000000000000000600052603260045260246000fd5b602002602001019063ffffffff16908163ffffffff16815250505b5080806140c990615d12565b915050613f64565b5080828063ffffffff16905094509450505050915091565b6000600160008373ffffffffffffffffffffffffffffffffffffffff1673ffffffffffffffffffffffffffffffffffffffff16815260200190815260200160002090506000816000018190555060008160010160006101000a81548163ffffffff021916908363ffffffff16021790555060008160010160046101000a81548163ffffffff021916908363ffffffff1602179055506001600260008473ffffffffffffffffffffffffffffffffffffffff1673ffffffffffffffffffffffffffffffffffffffff16815260200190815260200160002060006101000a81548160ff0219169083151502179055507f7ee9b70bf129b91a237044ce07c93c79f5562b96b53c04f7edaf7c9d6711f3d882604051614205919061563d565b60405180910390a15050565b60008082846142209190615ad6565b90508363ffffffff168163ffffffff161015614265577f4e487b7100000000000000000000000000000000000000000000000000000000600052600160045260246000fd5b8091505092915050565b600080828461427e9190615b10565b90508091505092915050565b60008083141561429d57600090506142f3565b600082846142ab9190615b41565b90508284826142ba9190615b10565b146142ee577f4e487b7100000000000000000000000000000000000000000000000000000000600052600160045260246000fd5b809150505b92915050565b60008082846143089190615a80565b905083811015614341577f4e487b7100000000000000000000000000000000000000000000000000000000600052600160045260246000fd5b8091505092915050565b6000600960008373ffffffffffffffffffffffffffffffffffffffff1673ffffffffffffffffffffffffffffffffffffffff168152602001908152602001600020549050600c5463ffffffff16600160008473ffffffffffffffffffffffffffffffffffffffff1673ffffffffffffffffffffffffffffffffffffffff16815260200190815260200160002060010160049054906101000a900463ffffffff1663ffffffff16101580156144005750600c5481105b1561456257600a60009054906101000a900473ffffffffffffffffffffffffffffffffffffffff1673ffffffffffffffffffffffffffffffffffffffff1663a9059cbb83670de0b6b3a7640000600c5461445a9190615b41565b6040518363ffffffff1660e01b8152600401614477929190615658565b602060405180830381600087803b15801561449157600080fd5b505af11580156144a5573d6000803e3d6000fd5b505050506040513d601f19601f820116820180604052508101906144c9919061516c565b5061451e600c54600960008573ffffffffffffffffffffffffffffffffffffffff1673ffffffffffffffffffffffffffffffffffffffff168152602001908152602001600020546142f990919063ffffffff16565b600960008473ffffffffffffffffffffffffffffffffffffffff1673ffffffffffffffffffffffffffffffffffffffff168152602001908152602001600020819055505b600d5463ffffffff16600160008473ffffffffffffffffffffffffffffffffffffffff1673ffffffffffffffffffffffffffffffffffffffff16815260200190815260200160002060010160049054906101000a900463ffffffff1663ffffffff16101580156145e05750600d54600c546145dd9190615a80565b81105b1561474257600a60009054906101000a900473ffffffffffffffffffffffffffffffffffffffff1673ffffffffffffffffffffffffffffffffffffffff1663a9059cbb83670de0b6b3a7640000600d5461463a9190615b41565b6040518363ffffffff1660e01b8152600401614657929190615658565b602060405180830381600087803b15801561467157600080fd5b505af1158015614685573d6000803e3d6000fd5b505050506040513d601f19601f820116820180604052508101906146a9919061516c565b506146fe600d54600960008573ffffffffffffffffffffffffffffffffffffffff1673ffffffffffffffffffffffffffffffffffffffff168152602001908152602001600020546142f990919063ffffffff16565b600960008473ffffffffffffffffffffffffffffffffffffffff1673ffffffffffffffffffffffffffffffffffffffff168152602001908152602001600020819055505b600e5463ffffffff16600160008473ffffffffffffffffffffffffffffffffffffffff1673ffffffffffffffffffffffffffffffffffffffff16815260200190815260200160002060010160049054906101000a900463ffffffff1663ffffffff16101580156147cd5750600e54600d54600c546147c09190615a80565b6147ca9190615a80565b81105b1561492f57600a60009054906101000a900473ffffffffffffffffffffffffffffffffffffffff1673ffffffffffffffffffffffffffffffffffffffff1663a9059cbb83670de0b6b3a7640000600e546148279190615b41565b6040518363ffffffff1660e01b8152600401614844929190615658565b602060405180830381600087803b15801561485e57600080fd5b505af1158015614872573d6000803e3d6000fd5b505050506040513d601f19601f82011682018060405250810190614896919061516c565b506148eb600e54600960008573ffffffffffffffffffffffffffffffffffffffff1673ffffffffffffffffffffffffffffffffffffffff168152602001908152602001600020546142f990919063ffffffff16565b600960008473ffffffffffffffffffffffffffffffffffffffff1673ffffffffffffffffffffffffffffffffffffffff168152602001908152602001600020819055505b600f5463ffffffff16600160008473ffffffffffffffffffffffffffffffffffffffff1673ffffffffffffffffffffffffffffffffffffffff16815260200190815260200160002060010160049054906101000a900463ffffffff1663ffffffff16101580156149c75750600f54600e54600d54600c546149b09190615a80565b6149ba9190615a80565b6149c49190615a80565b81105b15614b2957600a60009054906101000a900473ffffffffffffffffffffffffffffffffffffffff1673ffffffffffffffffffffffffffffffffffffffff1663a9059cbb83670de0b6b3a7640000600f54614a219190615b41565b6040518363ffffffff1660e01b8152600401614a3e929190615658565b602060405180830381600087803b158015614a5857600080fd5b505af1158015614a6c573d6000803e3d6000fd5b505050506040513d601f19601f82011682018060405250810190614a90919061516c565b50614ae5600f54600960008573ffffffffffffffffffffffffffffffffffffffff1673ffffffffffffffffffffffffffffffffffffffff168152602001908152602001600020546142f990919063ffffffff16565b600960008473ffffffffffffffffffffffffffffffffffffffff1673ffffffffffffffffffffffffffffffffffffffff168152602001908152602001600020819055505b60105463ffffffff16600160008473ffffffffffffffffffffffffffffffffffffffff1673ffffffffffffffffffffffffffffffffffffffff16815260200190815260200160002060010160049054906101000a900463ffffffff1663ffffffff1610158015614bce5750601054600f54600e54600d54600c54614bad9190615a80565b614bb79190615a80565b614bc19190615a80565b614bcb9190615a80565b81105b15614d3057600a60009054906101000a900473ffffffffffffffffffffffffffffffffffffffff1673ffffffffffffffffffffffffffffffffffffffff1663a9059cbb83670de0b6b3a7640000601054614c289190615b41565b6040518363ffffffff1660e01b8152600401614c45929190615658565b602060405180830381600087803b158015614c5f57600080fd5b505af1158015614c73573d6000803e3d6000fd5b505050506040513d601f19601f82011682018060405250810190614c97919061516c565b50614cec601054600960008573ffffffffffffffffffffffffffffffffffffffff1673ffffffffffffffffffffffffffffffffffffffff168152602001908152602001600020546142f990919063ffffffff16565b600960008473ffffffffffffffffffffffffffffffffffffffff1673ffffffffffffffffffffffffffffffffffffffff168152602001908152602001600020819055505b5050565b60008263ffffffff168263ffffffff161115614d79577f4e487b7100000000000000000000000000000000000000000000000000000000600052600160045260246000fd5b8183614d859190615bcf565b905092915050565b600082821115614dc6577f4e487b7100000000000000000000000000000000000000000000000000000000600052600160045260246000fd5b8183614dd29190615b9b565b905092915050565b600073ffffffffffffffffffffffffffffffffffffffff168173ffffffffffffffffffffffffffffffffffffffff161415614e1457600080fd5b8073ffffffffffffffffffffffffffffffffffffffff1660008054906101000a900473ffffffffffffffffffffffffffffffffffffffff1673ffffffffffffffffffffffffffffffffffffffff167f8be0079c531659141344cd1fd0a4f28419497f9722a3daafe3b4186f6b6457e060405160405180910390a3806000806101000a81548173ffffffffffffffffffffffffffffffffffffffff021916908373ffffffffffffffffffffffffffffffffffffffff16021790555050565b828054614edd90615caf565b90600052602060002090601f016020900481019282614eff5760008555614f46565b82601f10614f1857805160ff1916838001178555614f46565b82800160010185558215614f46579182015b82811115614f45578251825591602001919060010190614f2a565b5b509050614f539190614f57565b5090565b5b80821115614f70576000816000905550600101614f58565b5090565b6000614f87614f8284615912565b6158ed565b90508083825260208201905082856020860282011115614fa657600080fd5b60005b85811015614fd65781614fbc88826150b1565b845260208401935060208301925050600181019050614fa9565b5050509392505050565b6000614ff3614fee8461593e565b6158ed565b90508281526020810184848401111561500b57600080fd5b615016848285615c6d565b509392505050565b60008135905061502d81615ee0565b92915050565b600082601f83011261504457600080fd5b8135615054848260208601614f74565b91505092915050565b60008151905061506c81615ef7565b92915050565b600082601f83011261508357600080fd5b8135615093848260208601614fe0565b91505092915050565b6000813590506150ab81615f0e565b92915050565b6000813590506150c081615f25565b92915050565b6000602082840312156150d857600080fd5b60006150e68482850161501e565b91505092915050565b6000806040838503121561510257600080fd5b60006151108582860161501e565b92505060206151218582860161509c565b9150509250929050565b60006020828403121561513d57600080fd5b600082013567ffffffffffffffff81111561515757600080fd5b61516384828501615033565b91505092915050565b60006020828403121561517e57600080fd5b600061518c8482850161505d565b91505092915050565b600080600080608085870312156151ab57600080fd5b600085013567ffffffffffffffff8111156151c557600080fd5b6151d187828801615072565b945050602085013567ffffffffffffffff8111156151ee57600080fd5b6151fa87828801615072565b935050604085013567ffffffffffffffff81111561521757600080fd5b61522387828801615072565b925050606085013567ffffffffffffffff81111561524057600080fd5b61524c87828801615072565b91505092959194509250565b60006020828403121561526a57600080fd5b60006152788482850161509c565b91505092915050565b60006020828403121561529357600080fd5b60006152a1848285016150b1565b91505092915050565b600080604083850312156152bd57600080fd5b60006152cb858286016150b1565b92505060206152dc8582860161509c565b9150509250929050565b60006152f28383615342565b60208301905092915050565b600061530a8383615506565b60208301905092915050565b60006153228383615524565b905092915050565b600061533683836155cb565b60208301905092915050565b61534b81615c03565b82525050565b61535a81615c03565b82525050565b61537161536c82615c03565b615d88565b82525050565b6000615382826159af565b61538c8185615a1a565b93506153978361596f565b8060005b838110156153c85781516153af88826152e6565b97506153ba836159e6565b92505060018101905061539b565b5085935050505092915050565b60006153e0826159ba565b6153ea8185615a2b565b93506153f58361597f565b8060005b8381101561542657815161540d88826152fe565b9750615418836159f3565b9250506001810190506153f9565b5085935050505092915050565b600061543e826159c5565b6154488185615a3c565b93508360208202850161545a8561598f565b8060005b8581101561549657848403895281516154778582615316565b945061548283615a00565b925060208a0199505060018101905061545e565b50829750879550505050505092915050565b60006154b3826159d0565b6154bd8185615a4d565b93506154c88361599f565b8060005b838110156154f95781516154e0888261532a565b97506154eb83615a0d565b9250506001810190506154cc565b5085935050505092915050565b61550f81615c15565b82525050565b61551e81615c15565b82525050565b600061552f826159db565b6155398185615a5e565b9350615549818560208601615c7c565b61555281615eb5565b840191505092915050565b6000615568826159db565b6155728185615a6f565b9350615582818560208601615c7c565b61558b81615eb5565b840191505092915050565b61559f81615c41565b82525050565b6155b66155b182615c41565b615dac565b82525050565b6155c581615c5b565b82525050565b6155d481615c4b565b82525050565b6155e381615c4b565b82525050565b6155fa6155f582615c4b565b615db6565b82525050565b600061560c82866155a5565b60208201915061561c8285615360565b60148201915061562c82846155e9565b600482019150819050949350505050565b60006020820190506156526000830184615351565b92915050565b600060408201905061566d6000830185615351565b61567a6020830184615596565b9392505050565b6000602082019050818103600083015261569b8184615377565b905092915050565b600060208201905081810360008301526156bd81846153d5565b905092915050565b600060a08201905081810360008301526156df8188615433565b905081810360208301526156f38187615433565b905081810360408301526157078186615433565b9050818103606083015261571b81856154a8565b9050818103608083015261572f81846154a8565b90509695505050505050565b6000604082019050818103600083015261575581856154a8565b90506157646020830184615596565b9392505050565b60006020820190506157806000830184615515565b92915050565b600060e08201905081810360008301526157a0818a61555d565b905081810360208301526157b4818961555d565b905081810360408301526157c8818861555d565b905081810360608301526157dc818761555d565b90506157eb60808301866155da565b6157f860a08301856155da565b61580560c0830184615351565b98975050505050505050565b60006020820190506158266000830184615596565b92915050565b60006060820190506158416000830186615596565b61584e60208301856155da565b61585b60408301846155da565b949350505050565b600060208201905061587860008301846155da565b92915050565b600060a08201905061589360008301886155bc565b81810360208301526158a5818761555d565b905081810360408301526158b9818661555d565b905081810360608301526158cd818561555d565b905081810360808301526158e1818461555d565b90509695505050505050565b60006158f7615908565b90506159038282615ce1565b919050565b6000604051905090565b600067ffffffffffffffff82111561592d5761592c615e86565b5b602082029050602081019050919050565b600067ffffffffffffffff82111561595957615958615e86565b5b61596282615eb5565b9050602081019050919050565b6000819050602082019050919050565b6000819050602082019050919050565b6000819050602082019050919050565b6000819050602082019050919050565b600081519050919050565b600081519050919050565b600081519050919050565b600081519050919050565b600081519050919050565b6000602082019050919050565b6000602082019050919050565b6000602082019050919050565b6000602082019050919050565b600082825260208201905092915050565b600082825260208201905092915050565b600082825260208201905092915050565b600082825260208201905092915050565b600082825260208201905092915050565b600082825260208201905092915050565b6000615a8b82615c41565b9150615a9683615c41565b9250827fffffffffffffffffffffffffffffffffffffffffffffffffffffffffffffffff03821115615acb57615aca615df9565b5b828201905092915050565b6000615ae182615c4b565b9150615aec83615c4b565b92508263ffffffff03821115615b0557615b04615df9565b5b828201905092915050565b6000615b1b82615c41565b9150615b2683615c41565b925082615b3657615b35615e28565b5b828204905092915050565b6000615b4c82615c41565b9150615b5783615c41565b9250817fffffffffffffffffffffffffffffffffffffffffffffffffffffffffffffffff0483118215151615615b9057615b8f615df9565b5b828202905092915050565b6000615ba682615c41565b9150615bb183615c41565b925082821015615bc457615bc3615df9565b5b828203905092915050565b6000615bda82615c4b565b9150615be583615c4b565b925082821015615bf857615bf7615df9565b5b828203905092915050565b6000615c0e82615c21565b9050919050565b60008115159050919050565b600073ffffffffffffffffffffffffffffffffffffffff82169050919050565b6000819050919050565b600063ffffffff82169050919050565b6000615c6682615c4b565b9050919050565b82818337600083830152505050565b60005b83811015615c9a578082015181840152602081019050615c7f565b83811115615ca9576000848401525b50505050565b60006002820490506001821680615cc757607f821691505b60208210811415615cdb57615cda615e57565b5b50919050565b615cea82615eb5565b810181811067ffffffffffffffff82111715615d0957615d08615e86565b5b80604052505050565b6000615d1d82615c41565b91507fffffffffffffffffffffffffffffffffffffffffffffffffffffffffffffffff821415615d5057615d4f615df9565b5b600182019050919050565b6000615d6682615c4b565b915063ffffffff821415615d7d57615d7c615df9565b5b600182019050919050565b6000615d9382615d9a565b9050919050565b6000615da582615ed3565b9050919050565b6000819050919050565b6000615dc182615ec6565b9050919050565b6000615dd382615c41565b9150615dde83615c41565b925082615dee57615ded615e28565b5b828206905092915050565b7f4e487b7100000000000000000000000000000000000000000000000000000000600052601160045260246000fd5b7f4e487b7100000000000000000000000000000000000000000000000000000000600052601260045260246000fd5b7f4e487b7100000000000000000000000000000000000000000000000000000000600052602260045260246000fd5b7f4e487b7100000000000000000000000000000000000000000000000000000000600052604160045260246000fd5b6000601f19601f8301169050919050565b60008160e01b9050919050565b60008160601b9050919050565b615ee981615c03565b8114615ef457600080fd5b50565b615f0081615c15565b8114615f0b57600080fd5b50565b615f1781615c41565b8114615f2257600080fd5b50565b615f2e81615c4b565b8114615f3957600080fd5b5056fea2646970667358221220645076b54d5899581940c2e3c83c976a42cba61ef609e77b5806a7cdc33964bb64736f6c63430008040033",
  "linkReferences": {},
  "deployedLinkReferences": {}
}