{
  "_format": "hh-sol-artifact-1",
  "contractName": "PostFactory",
  "sourceName": "contracts/postfactory.sol",
  "abi": [
    {
      "anonymous": false,
      "inputs": [
        {
          "indexed": false,
          "internalType": "uint256",
          "name": "postId",
          "type": "uint256"
        },
        {
          "indexed": false,
          "internalType": "string",
          "name": "name",
          "type": "string"
        },
        {
          "indexed": false,
          "internalType": "string",
          "name": "mediaHash",
          "type": "string"
        },
        {
          "indexed": false,
          "internalType": "string",
          "name": "metaHash",
          "type": "string"
        },
        {
          "indexed": false,
          "internalType": "string",
          "name": "mediaType",
          "type": "string"
        }
      ],
      "name": "NewPost",
      "type": "event"
    },
    {
      "anonymous": false,
      "inputs": [
        {
          "indexed": false,
          "internalType": "address",
          "name": "userAddress",
          "type": "address"
        }
      ],
      "name": "NewUser",
      "type": "event"
    },
    {
      "anonymous": false,
      "inputs": [
        {
          "indexed": true,
          "internalType": "address",
          "name": "previousOwner",
          "type": "address"
        },
        {
          "indexed": true,
          "internalType": "address",
          "name": "newOwner",
          "type": "address"
        }
      ],
      "name": "OwnershipTransferred",
      "type": "event"
    },
    {
      "inputs": [
        {
          "internalType": "string",
          "name": "_name",
          "type": "string"
        },
        {
          "internalType": "string",
          "name": "_mediaHash",
          "type": "string"
        },
        {
          "internalType": "string",
          "name": "_metaHash",
          "type": "string"
        },
        {
          "internalType": "string",
          "name": "_mediaType",
          "type": "string"
        }
      ],
      "name": "createPost",
      "outputs": [],
      "stateMutability": "nonpayable",
      "type": "function"
    },
    {
      "inputs": [],
      "name": "isOwner",
      "outputs": [
        {
          "internalType": "bool",
          "name": "",
          "type": "bool"
        }
      ],
      "stateMutability": "view",
      "type": "function"
    },
    {
      "inputs": [],
      "name": "owner",
      "outputs": [
        {
          "internalType": "address",
          "name": "",
          "type": "address"
        }
      ],
      "stateMutability": "view",
      "type": "function"
    },
    {
      "inputs": [
        {
          "internalType": "address",
          "name": "",
          "type": "address"
        },
        {
          "internalType": "uint256",
          "name": "",
          "type": "uint256"
        }
      ],
      "name": "ownerToPostIds",
      "outputs": [
        {
          "internalType": "uint32",
          "name": "",
          "type": "uint32"
        }
      ],
      "stateMutability": "view",
      "type": "function"
    },
    {
      "inputs": [
        {
          "internalType": "uint32",
          "name": "",
          "type": "uint32"
        },
        {
          "internalType": "uint256",
          "name": "",
          "type": "uint256"
        }
      ],
      "name": "postToLikingUsers",
      "outputs": [
        {
          "internalType": "address",
          "name": "",
          "type": "address"
        }
      ],
      "stateMutability": "view",
      "type": "function"
    },
    {
      "inputs": [
        {
          "internalType": "uint32",
          "name": "",
          "type": "uint32"
        }
      ],
      "name": "postToOwner",
      "outputs": [
        {
          "internalType": "address",
          "name": "",
          "type": "address"
        }
      ],
      "stateMutability": "view",
      "type": "function"
    },
    {
      "inputs": [],
      "name": "renounceOwnership",
      "outputs": [],
      "stateMutability": "nonpayable",
      "type": "function"
    },
    {
      "inputs": [
        {
          "internalType": "address",
          "name": "newOwner",
          "type": "address"
        }
      ],
      "name": "transferOwnership",
      "outputs": [],
      "stateMutability": "nonpayable",
      "type": "function"
    }
  ],
  "bytecode": "0x608060405234801561001057600080fd5b50336000806101000a81548173ffffffffffffffffffffffffffffffffffffffff021916908373ffffffffffffffffffffffffffffffffffffffff16021790555060008054906101000a900473ffffffffffffffffffffffffffffffffffffffff1673ffffffffffffffffffffffffffffffffffffffff16600073ffffffffffffffffffffffffffffffffffffffff167f8be0079c531659141344cd1fd0a4f28419497f9722a3daafe3b4186f6b6457e060405160405180910390a36110c9806100db6000396000f3fe608060405234801561001057600080fd5b50600436106100885760003560e01c80638da5cb5b1161005b5780638da5cb5b146101135780638f32d59b14610131578063c7457c591461014f578063f2fde38b1461017f57610088565b80630d57f91f1461008d5780631a7d0b57146100a95780631d987ba9146100d9578063715018a614610109575b600080fd5b6100a760048036038101906100a29190610b98565b61019b565b005b6100c360048036038101906100be9190610c5b565b610536565b6040516100d09190610d35565b60405180910390f35b6100f360048036038101906100ee9190610b5c565b610569565b6040516101009190610d6b565b60405180910390f35b6101116105b2565b005b61011b610681565b6040516101289190610d35565b60405180910390f35b6101396106aa565b6040516101469190610d50565b60405180910390f35b61016960048036038101906101649190610c84565b610701565b6040516101769190610d35565b60405180910390f35b61019960048036038101906101949190610b33565b61074f565b005b60011515600260003373ffffffffffffffffffffffffffffffffffffffff1673ffffffffffffffffffffffffffffffffffffffff16815260200190815260200160002060009054906101000a900460ff161515146101fd576101fc3361076c565b5b600060056000600460009054906101000a900463ffffffff1663ffffffff1663ffffffff16815260200190815260200160002090508481600001908051906020019061024a9291906109e9565b50838160010190805190602001906102639291906109e9565b508281600201908051906020019061027c9291906109e9565b50818160030190805190602001906102959291906109e9565b5060008160040160006101000a81548163ffffffff021916908363ffffffff1602179055503360066000600460009054906101000a900463ffffffff1663ffffffff1663ffffffff16815260200190815260200160002060006101000a81548173ffffffffffffffffffffffffffffffffffffffff021916908373ffffffffffffffffffffffffffffffffffffffff160217905550600760003373ffffffffffffffffffffffffffffffffffffffff1673ffffffffffffffffffffffffffffffffffffffff168152602001908152602001600020600460009054906101000a900463ffffffff1690806001815401808255809150506001900390600052602060002090600891828204019190066004029091909190916101000a81548163ffffffff021916908363ffffffff16021790555061043260018060003373ffffffffffffffffffffffffffffffffffffffff1673ffffffffffffffffffffffffffffffffffffffff16815260200190815260200160002060010160009054906101000a900463ffffffff1663ffffffff1661089490919063ffffffff16565b600160003373ffffffffffffffffffffffffffffffffffffffff1673ffffffffffffffffffffffffffffffffffffffff16815260200190815260200160002060010160006101000a81548163ffffffff021916908363ffffffff1602179055507f6798fa38b49f8e823ad7cf3a48f5cde062b19e320ed4880f584d940844689ff5600460009054906101000a900463ffffffff16868686866040516104db959493929190610d86565b60405180910390a161050f6001600460009054906101000a900463ffffffff1663ffffffff1661089490919063ffffffff16565b600460006101000a81548163ffffffff021916908363ffffffff1602179055505050505050565b60066020528060005260406000206000915054906101000a900473ffffffffffffffffffffffffffffffffffffffff1681565b6007602052816000526040600020818154811061058557600080fd5b9060005260206000209060089182820401919006600402915091509054906101000a900463ffffffff1681565b6105ba6106aa565b6105c357600080fd5b600073ffffffffffffffffffffffffffffffffffffffff1660008054906101000a900473ffffffffffffffffffffffffffffffffffffffff1673ffffffffffffffffffffffffffffffffffffffff167f8be0079c531659141344cd1fd0a4f28419497f9722a3daafe3b4186f6b6457e060405160405180910390a360008060006101000a81548173ffffffffffffffffffffffffffffffffffffffff021916908373ffffffffffffffffffffffffffffffffffffffff160217905550565b60008060009054906101000a900473ffffffffffffffffffffffffffffffffffffffff16905090565b60008060009054906101000a900473ffffffffffffffffffffffffffffffffffffffff1673ffffffffffffffffffffffffffffffffffffffff163373ffffffffffffffffffffffffffffffffffffffff1614905090565b6008602052816000526040600020818154811061071d57600080fd5b906000526020600020016000915091509054906101000a900473ffffffffffffffffffffffffffffffffffffffff1681565b6107576106aa565b61076057600080fd5b610769816108f2565b50565b6000600160008373ffffffffffffffffffffffffffffffffffffffff1673ffffffffffffffffffffffffffffffffffffffff16815260200190815260200160002090506000816000018190555060008160010160006101000a81548163ffffffff021916908363ffffffff16021790555060008160010160046101000a81548163ffffffff021916908363ffffffff1602179055506001600260008473ffffffffffffffffffffffffffffffffffffffff1673ffffffffffffffffffffffffffffffffffffffff16815260200190815260200160002060006101000a81548160ff0219169083151502179055507f7ee9b70bf129b91a237044ce07c93c79f5562b96b53c04f7edaf7c9d6711f3d8826040516108889190610d35565b60405180910390a15050565b60008082846108a39190610e67565b90508363ffffffff168163ffffffff1610156108e8577f4e487b7100000000000000000000000000000000000000000000000000000000600052600160045260246000fd5b8091505092915050565b600073ffffffffffffffffffffffffffffffffffffffff168173ffffffffffffffffffffffffffffffffffffffff16141561092c57600080fd5b8073ffffffffffffffffffffffffffffffffffffffff1660008054906101000a900473ffffffffffffffffffffffffffffffffffffffff1673ffffffffffffffffffffffffffffffffffffffff167f8be0079c531659141344cd1fd0a4f28419497f9722a3daafe3b4186f6b6457e060405160405180910390a3806000806101000a81548173ffffffffffffffffffffffffffffffffffffffff021916908373ffffffffffffffffffffffffffffffffffffffff16021790555050565b8280546109f590610f4d565b90600052602060002090601f016020900481019282610a175760008555610a5e565b82601f10610a3057805160ff1916838001178555610a5e565b82800160010185558215610a5e579182015b82811115610a5d578251825591602001919060010190610a42565b5b509050610a6b9190610a6f565b5090565b5b80821115610a88576000816000905550600101610a70565b5090565b6000610a9f610a9a84610e1a565b610df5565b905082815260208101848484011115610ab757600080fd5b610ac2848285610f0b565b509392505050565b600081359050610ad98161104e565b92915050565b600082601f830112610af057600080fd5b8135610b00848260208601610a8c565b91505092915050565b600081359050610b1881611065565b92915050565b600081359050610b2d8161107c565b92915050565b600060208284031215610b4557600080fd5b6000610b5384828501610aca565b91505092915050565b60008060408385031215610b6f57600080fd5b6000610b7d85828601610aca565b9250506020610b8e85828601610b09565b9150509250929050565b60008060008060808587031215610bae57600080fd5b600085013567ffffffffffffffff811115610bc857600080fd5b610bd487828801610adf565b945050602085013567ffffffffffffffff811115610bf157600080fd5b610bfd87828801610adf565b935050604085013567ffffffffffffffff811115610c1a57600080fd5b610c2687828801610adf565b925050606085013567ffffffffffffffff811115610c4357600080fd5b610c4f87828801610adf565b91505092959194509250565b600060208284031215610c6d57600080fd5b6000610c7b84828501610b1e565b91505092915050565b60008060408385031215610c9757600080fd5b6000610ca585828601610b1e565b9250506020610cb685828601610b09565b9150509250929050565b610cc981610ea1565b82525050565b610cd881610eb3565b82525050565b6000610ce982610e4b565b610cf38185610e56565b9350610d03818560208601610f1a565b610d0c8161103d565b840191505092915050565b610d2081610ef9565b82525050565b610d2f81610ee9565b82525050565b6000602082019050610d4a6000830184610cc0565b92915050565b6000602082019050610d656000830184610ccf565b92915050565b6000602082019050610d806000830184610d26565b92915050565b600060a082019050610d9b6000830188610d17565b8181036020830152610dad8187610cde565b90508181036040830152610dc18186610cde565b90508181036060830152610dd58185610cde565b90508181036080830152610de98184610cde565b90509695505050505050565b6000610dff610e10565b9050610e0b8282610f7f565b919050565b6000604051905090565b600067ffffffffffffffff821115610e3557610e3461100e565b5b610e3e8261103d565b9050602081019050919050565b600081519050919050565b600082825260208201905092915050565b6000610e7282610ee9565b9150610e7d83610ee9565b92508263ffffffff03821115610e9657610e95610fb0565b5b828201905092915050565b6000610eac82610ebf565b9050919050565b60008115159050919050565b600073ffffffffffffffffffffffffffffffffffffffff82169050919050565b6000819050919050565b600063ffffffff82169050919050565b6000610f0482610ee9565b9050919050565b82818337600083830152505050565b60005b83811015610f38578082015181840152602081019050610f1d565b83811115610f47576000848401525b50505050565b60006002820490506001821680610f6557607f821691505b60208210811415610f7957610f78610fdf565b5b50919050565b610f888261103d565b810181811067ffffffffffffffff82111715610fa757610fa661100e565b5b80604052505050565b7f4e487b7100000000000000000000000000000000000000000000000000000000600052601160045260246000fd5b7f4e487b7100000000000000000000000000000000000000000000000000000000600052602260045260246000fd5b7f4e487b7100000000000000000000000000000000000000000000000000000000600052604160045260246000fd5b6000601f19601f8301169050919050565b61105781610ea1565b811461106257600080fd5b50565b61106e81610edf565b811461107957600080fd5b50565b61108581610ee9565b811461109057600080fd5b5056fea26469706673582212204e4a18c049ccf198d723dbef1ce50d05f411e44a1ba2f2efa93be241cf29d75a64736f6c63430008040033",
  "linkReferences": {},
  "deployedLinkReferences": {}
}